:020000040800F2
:1000000000000C20795B0008610A0008630A000800
:10001000650A0008670A0008690A0008C95B000849
:100020000000000000000000000000006B0A000853
:100030006D0A0008000000006F0A0008710A00083D
:10004000C95B0008C95B0008C95B0008C95B000800
:10005000C95B0008C95B0008C95B0008C95B0008F0
:10006000C95B0008C95B0008C95B0008C95B0008E0
:10007000C95B0008C95B0008C95B0008C95B0008D0
:10008000C95B0008C95B0008C95B0008C95B0008C0
:10009000C95B0008C95B0008C95B0008C95B0008B0
:1000A000C95B0008C95B0008C95B0008C95B0008A0
:1000B00000000000C95B0008C95B0008C95B0008BC
:1000C000C95B0008C95B0008C95B0008C95B000880
:1000D000C95B0008C95B0008C95B0008C95B000870
:1000E000C95B0008C95B0008C95B0008C95B000860
:1000F000C95B0008C95B0008C95B0008C95B000850
:10010000C95B0008C95B0008C95B0008C95B00083F
:10011000C95B0008C95B0008C95B0008C95B00082F
:10012000C95B0008C95B0008C95B0008C95B00081F
:10013000C95B0008C95B0008C95B0008C95B00080F
:10014000C95B0008C95B0008C95B0008C95B0008FF
:10015000C95B0008C95B0008C95B0008C95B0008EF
:10016000C95B0008790A0008C95B0008C95B000880
:10017000C95B0008C95B0008C95B0008C95B0008CF
:10018000C95B0008C95B0008C95B0008C95B0008BF
:10019000C95B0008C95B0008C95B0008C95B0008AF
:1001A000C95B0008C95B0008C95B0008C95B00089F
:1001B000C95B000800000000C95B0008C95B0008BB
:1001C000C95B000800000000C95B0008C95B0008AB
:1001D000C95B0008C95B0008C95B0008C95B00086F
:1001E000C95B0008C95B0008C95B0008C95B00085F
:1001F0000000000000000000C95B0008C95B0008A7
:10020000C95B0008C95B0008C95B0008C95B00083E
:10021000C95B0008C95B0008C95B0008C95B00082E
:10022000C95B0008C95B0008C95B0008C95B00081E
:04023000C95B00089E
:1002340053B94AB9002908BF00281CBF4FF0FF3149
:100244004FF0FF3000F00CB8ADF1080C6DE904CEAE
:1002540005F0A4FDDDF804E0DDE9022304B07047F5
:10026400704700BF10B5054C237833B9044B13B164
:100274000448AFF300800123237010BD1000002058
:10028400000000008C60000808B5034B1BB1034953
:100294000348AFF3008008BD0000000014000020F4
:1002A4008C6000082DE9F04F8DB000240794089469
:1002B40009940A940B946F4BD3F88C2042F00402F7
:1002C400C3F88C20D3F88C2002F004020092009A28
:1002D400D3F88C2042F00102C3F88C20D3F88C2090
:1002E40002F001020192019AD3F88C2042F002023A
:1002F400C3F88C20D3F88C2002F002020292029AF6
:10030400D3F88C2042F02002C3F88C20D3F88C2040
:1003140002F020020392039AD3F88C2042F01002D8
:10032400C3F88C20D3F88C2002F010020492049AB3
:10033400D3F88C2042F04002C3F88C20D3F88C20F0
:1003440002F040020592059AD3F88C2042F008028C
:10035400C3F88C20D3F88C3003F008030693069B73
:10036400DFF81C9122464FF40051484601F0D2F8C0
:1003740001224FF40041484601F0CCF8DFF804B103
:1003840001224FF40061584601F0C4F8DFF8F8A0E8
:1003940022460421504601F0BDF8DFF8F0802246E1
:1003A4008021404601F0B6F8334E01221021304638
:1003B40001F0B0F82246A021304601F0ABF84FF42A
:1003C400005307932D4B0893099407A9404600F066
:1003D40093FF4FF4204307930125089502270997BB
:1003E4000A9407A9484600F087FF4FF40063079377
:1003F400089509970A9407A9584600F07DFF4FF421
:10040400804307930894099407A9304600F074FFC9
:1004140004230793089509950A9707A9504600F005
:100424006BFF4FF08009CDF81C90089509950A9749
:1004340007A9404600F060FF102307930895099729
:100444000A9407A9304600F057FF20230793089524
:1004540009940A9407A9304600F04EFFCDF81C9089
:10046400089509950A9707A9304600F045FF0DB095
:10047400BDE8F08F000C0246000402420000211087
:100484000014024200100242001802420008024214
:1004940070B58AB0002404940594069407940894D3
:1004A40009941B4BD3F8A02042F40002C3F8A02007
:1004B400D3F8A02002F400020392039AD3F88C200C
:1004C40042F00202C3F88C20D3F88C2002F002021E
:1004D4000292029AD3F88C2042F00102C3F88C20D5
:1004E400D3F88C3003F001030193019B4FF40046D1
:1004F40004960325059504A9064804F0CBFF049649
:100504000595089404A9044804F0C4FF0AB070BD1A
:10051400000C0246000402420000024272B6FEE7EA
:1005240008B501F077FD022001F036FD00B908BDE1
:10053400FFF7F4FF08B50F480F4B03600023436037
:100544008360C360036104228261037780F82430EE
:100554000122826280F82C3080F840308366436444
:100564000365C36380F8543000F024FB00B908BD70
:10057400FFF7D4FF2C0600200080024208B50F4884
:100584000F4B0360002343608360C3600122027445
:10059400437483741421416182610D21C16102217C
:1005A400016242628262C262026343638363C36321
:1005B40000F0BEFD00B908BDFFF7B0FFC80500207C
:1005C40000A4004008B51548154B03604FF4E1330F
:1005D400436000238360C36003610C224261836132
:1005E400C36103624362836204F0FBFD70B90021BE
:1005F4000A4804F06EFE58B90021084804F08EFE43
:1006040040B9064804F046FE30B908BDFFF786FF3E
:10061400FFF784FFFFF782FFFFF780FF3805002014
:100624000038014008B50A480A4B036006234360BA
:10063400022383610023C361036243628362036311
:10064400C36200F0D4FF00B908BDFFF767FF00BF25
:100654002C0000200000044200B59FB0602200215D
:1006640006A805F0B7FA00230093019302930393BD
:10067400049305934FF4403001F03EFC002831D13F
:10068400322306934FF4807309934FF480531193EC
:1006940010230A9301210D910E934FF080430F9381
:1006A4000223149315910022179216915021189148
:1006B40019931A931B931C921D9206A801F070FFC4
:1006C40090B91F2300930323019300230293039300
:1006D400049305930421684601F0C8FD30B91FB0A6
:1006E4005DF804FBFFF71AFFFFF718FFFFF716FF8B
:1006F40008B500F011FAFFF7AFFFFFF711FFFFF79E
:10070400D1FDFFF717FFFFF739FFFFF7C1FEFFF732
:1007140059FFFFF787FFFEE700B583B0094BD3F815
:10072400942042F00402C3F89420D3F8943003F0E8
:1007340004030193019B042000F08CFC03B05DF8DA
:1007440004FB00BF000C024630B5BDB004460021D6
:100754003791389139913A913B91C82204A805F018
:1007640039FA2268304B9A4201D03DB030BD4FF483
:1007740000420023CDE904234FF480432E9304A8C0
:1007840002F076FD00284BD1284BD3F88C2042F49C
:100794008062C3F88C20D3F88C2002F4806200922B
:1007A400009AD3F88C2042F00402C3F88C20D3F8CA
:1007B4008C2002F004020192019AD3F88C2042F0BA
:1007C4000102C3F88C20D3F88C2002F001020292BB
:1007D400029AD3F88C2042F00202C3F88C20D3F89A
:1007E4008C3003F002030393039B0F2337930325F9
:1007F40038950024399437A90D4800F07DFD0C2369
:1008040037933895399437A90A4800F075FD0123C8
:1008140037933895399437A9074800F06DFDA4E75C
:10082400FFF77CFEB0E700BF00800242000C0246E6
:1008340000080242000002420004024210B5BAB0AD
:100844000446002135913691379138913991C82267
:1008540002A805F0BFF922681D4B9A4201D03AB0B4
:1008640010BD4FF000620023CDE902234FF08073E6
:10087400239302A802F0FCFC30BB164BD3F8A02053
:1008840042F40072C3F8A020D3F8A02002F400724E
:100894000092009AD3F88C2042F00802C3F88C200E
:1008A400D3F88C3003F008030193019B03233593A1
:1008B400022336930023379338930923399335A9B8
:1008C400054800F019FDCAE7FFF728FED5E700BF89
:1008D40000A40040000C0246000C024210B5BAB05D
:1008E4000446002135913691379138913991C822C7
:1008F40002A805F06FF922681B4B9A4201D03AB066
:1009040010BD01220023CDE9022302A802F0B0FCAD
:1009140038BB164BD3F8A42042F48042C3F8A42079
:10092400D3F8A42002F480420092009AD3F88C20D9
:1009340042F00102C3F88C20D3F88C3003F0010399
:100944000193019B4FF4C06335930223369337938D
:10095400032338930723399335A9054800F0CCFCC9
:10096400CDE7FFF7DBFDD4E700380140000C024679
:100974000000024210B5BCB0044600213791389102
:1009840039913A913B91C82204A805F023F92268D1
:100994002F4B9A4201D03CB010BD4FF4801200237B
:1009A400CDE9042304A802F063FC002849D1294CB2
:1009B400D4F88C3043F00103C4F88C30D4F88C3074
:1009C40003F001030193019B4FF4C05337930223B7
:1009D40038930023399303233A930A233B9337A98B
:1009E4001D4800F089FCD4F88C3043F48043C4F8EB
:1009F4008C30D4F88C3003F480430293029BD4F8F7
:100A0400943013F0040F1FD1D4F8943043F004034E
:100A1400C4F89430D4F8943003F004030393039B94
:100A240001F0F0FAD4F8943023F00403C4F89430BD
:100A340000221146492000F01FFB492000F02CFB46
:100A4400A9E7FFF76BFDB2E701F0DCFAF0E700BFBE
:100A540000000442000C024600000242FEE7FEE7EA
:100A6400FEE7FEE7FEE770477047704708B500F001
:100A74007BF808BD08B5024800F026FF08BD00BF9A
:100A84002C0000200E48D0F8883043F47003C0F8DE
:100A940088300C4B01221A600022DA611A625A6211
:100AA400196821F0A85121F4102119609A6219687B
:100AB40021F4802119601A654FF000638360704748
:100AC40000ED00E0000C0246104B1B780BB901202E
:100AD400704710B504464FF47A70B0FBF3F30C4A38
:100AE4001068B0FBF3F000F0DBFA68B90F2C01D901
:100AF40001200AE0002221464FF0FF3000F0BCFA4A
:100B0400044B1C60002000E0012010BD0400002004
:100B1400000000200800002010B50F4A136843F4B9
:100B240080731360032000F095FA01F0DDFA0B4B9B
:100B34001B6A03F00F030A4AD35CD840094B1860C0
:100B44000020FFF7C1FF10B10124204610BD044668
:100B5400FFF7E2FDF9E700BF00200240000C024667
:100B6400EC60000800000020034B1B78034A116866
:100B74000B441360704700BF04000020B806002037
:100B8400014B1868704700BFB806002038B504460A
:100B9400FFF7F6FF0546B4F1FF3F02D0044B1B7884
:100BA4001C44FFF7EDFF401BA042FAD338BD00BF41
:100BB40004000020002800F00282F0B583B004464F
:100BC400836F13B323689A6812F0005F05D09A68A4
:100BD40022F0204222F03F029A602268936813F0C8
:100BE400805F1FD1936823F0104323F03F0343F049
:100BF40080539360A34B1B689B09A34AA2FB032366
:100C04009B0901335B00019309E0FFF79DFD00237D
:100C1400E36784F87430D5E7019B013B0193019BA2
:100C2400002BF9D123689A6812F0805F40F0AF80FE
:100C3400A26F42F01002A267E26F42F00102E26783
:100C440001209A6812F0040200D00122A16F11F071
:100C5400100F40F0AD81002A40F0AA81A16F21F469
:100C6400817141F00201A167996811F0010F17D158
:100C740086498B4200F0948085498B4200F089803C
:100C84008249896811F0010F0AD181498B4200F031
:100C94008580804D6368296821F470110B432B60B3
:100CA40025687A4B9D4200F0968094F82410636C7A
:100CB40043EA4133A1680B4394F82C1043EA0143FF
:100CC40094F82C10012900F0A78070498D4200F09F
:100CD400BA80616B21B101F47871A66B31430B4387
:100CE400EE686D4931401943E9602168674DA942B6
:100CF40000F0F3808B6813F0040300D001238A68AA
:100D040012F0080200D00122002B30D1002A2ED18B
:100D1400227F92035E4B994200F0B280E36B5B004A
:100D24001A43CB6823F4804323F003031343CB60BB
:100D3400E3685BB121680A6F22F47F5222F03F021C
:100D440013430B670B6F43F000430B6794F8543065
:100D5400012B00F0A5802268136923F001031361BD
:100D64002268136923F07043216D0B4313612369D7
:100D7400012B00F0A9802268136B23F00F03136387
:100D8400A36F23F0030343F00103A36715E10020DD
:100D940057E7896811F0010F82D176E73F4D79E773
:100DA400D96821F00C01A5684FF6FF76B54210D042
:100DB400013D05F00C052943D960344DD5F80833BD
:100DC40023F47013616801F470110B43C5F8083300
:100DD40066E70C25EFE7217F94F824305B0343EAB0
:100DE4008133616C09B14FF480510B4361690B434A
:100DF400216900290ADB4FF400110B4324498D4279
:100E040007D094F8401049000B4359E721F0004102
:100E1400F3E794F84010F7E71C498D4204D0216BA6
:100E2400013943EA414350E794F8241011B943F4DB
:100E340080334AE7A16F41F02001A167E16F41F0DF
:100E44000101E16741E7616B21B101F4E071A66B37
:100E540031430B43E96821F4BF3121F4F97119439B
:100E6400E960216A19B125686E6C31436964E16EE9
:100E740000293FF43AAF25686E6C3143696434E766
:100E8400E36B4DE700000020632D3E050010024691
:100E9400008002420813024613C0F0FF0883024296
:100EA40021680B69474A1A40A56DE36D43EA05437F
:100EB400256E2B43656E2B43A56E43EA95031343BE
:100EC40043F001030B614BE721680B6B23F00F0325
:100ED400A26A013A13430B6352E7A56DE66D3543ED
:100EE400266E3543A66E354394F85460012E2CD0FB
:100EF4000F69354E3E402E430E612668A16C75691C
:100F040025F00705294371612568E66C696921F0BC
:100F1400700141EA061169612169C9B921688A6AC7
:100F240062F00F028A622268D168284A0A409A4213
:100F340035D0A36F23F0120343F01003A367E36FCC
:100F440043F00103E367012037E045F00105CFE7F3
:100F5400B1F5001FE7D1072A09D8D4F88810950005
:100F6400E94001F00F010F2901D00132F3E7012A12
:100F74000FD02568AA6AA26A013A920002F01C0204
:100F84006FF00F0101FA02F2D4F888100A43AA6242
:100F9400C9E721688A6A62F00F028A62C3E7002304
:100FA400E367A36F23F0030343F00103A36704E0A3
:100FB400A36F43F01003A367012003B0F0BD012029
:100FC400704700BF1EF800FC02FCFFF7F3FF3F83ED
:100FD400002807DB00F01F02400901239340024A66
:100FE40042F82030704700BF00E100E0002808DB31
:100FF4000901C9B200F1604000F5614080F80013B6
:10100400704700F00F000901C9B2014B1954704731
:1010140014ED00E000B500F00700C0F1070CBCF1CE
:10102400040F28BF4FF0040C031D062B0FD9C31E59
:101034004FF0FF3E0EFA0CF021EA000199400EFA3F
:1010440003FE22EA0E0241EA02005DF804FB0023DB
:10105400EEE70000074AD36823F4E0631B041B0C8B
:10106400000200F4E060034343F0BF6343F4003341
:10107400D360704700ED00E010B50446054BD86816
:10108400C0F30220FFF7C6FF01462046FFF7AEFF7C
:1010940010BD00BF00ED00E008B5FFF799FF08BDE3
:1010A4000138B0F1807F0BD24FF0E0235861054A3C
:1010B400F02182F823100020986107221A617047FA
:1010C4000120704700ED00E010B4154B0364016883
:1010D400D1F8802022F4F812446B42EA0442C1F8A9
:1010E4008020104A42640168D1F8802022F07062A6
:1010F400846B42EA0462C1F880200B4A8264D832CD
:10110400C264D83202651832426502E0002243F814
:10111400042B064A9342F9D95DF8044B704700BF8B
:1011240000AC004070AC0040B0AC00404FAF004099
:10113400002800F0DC8038B5044690F85C30D3B168
:101144002268936923F010039361FFF719FD0546A4
:1011540023689A6912F0080F12D0FFF711FD401BA3
:101164000A28F5D9236E43F001032366032384F888
:101174005C30012038BD80F85D30FFF75FFBDFE7AE
:101184009A6942F001029A61FFF7FAFC0546236866
:101194009A6912F0010F0DD1FFF7F2FC401B0A28E7
:1011A400F5D9236E43F001032366032384F85C30EE
:1011B4000120DFE79A6942F002029A6162684D4BAE
:1011C4001A60237C012B3FD02268936943F04003CB
:1011D4009361637C012B3DD02268936923F480439F
:1011E4009361A37C012B3BD02268936943F4805321
:1011F40093612268936923F44073A1680B4393615C
:101204002268936923F0A40393612268136923F08D
:1012140010031361E368012B28D0002B2BD0022B81
:101224004ED02268936943F0800393612268136966
:1012340043F010031361E368032B1CD12268936904
:1012440043F02003936116E02268936923F040037E
:101254009361BEE72268936943F480439361C0E7D6
:101264002268936923F480539361C2E722689369E7
:1012740043F004039361A3695A1EE369013B1B0213
:1012840043EA4263226A013A13436269013A2168DC
:1012940043EA0243CB61A368B3F5407F16D02268CA
:1012A400D2F8C030E16B0B43C2F8C0302046FFF7E0
:1012B4000BFF0020A0652066012384F85C3059E709
:1012C4002268936943F020039361D4E7A36A013B46
:1012D400E26A013A43EA0223226B013A43EA021327
:1012E400626A013A216843EA0243CB60D7E70120EE
:1012F400704700BF00A50040F0B504460023D9E0C4
:10130400056825EA0C054C6804F001049C402C4354
:1013140004607C4D55F8334005EBC3056D68EF0858
:10132400083754F8276005F0070C4FEA8C0C4FF08F
:101334000F0E0EFA0CFE26EA0E0E0B2606FA0CF61B
:1013440046EA0E0644F8276027684FEA450C032650
:1013540006FA0CF627EA0607022606FA0CF63E43BE
:10136400266021E0DE08083650F8265003F007070F
:10137400BF004FF00F0C0CFA07FC25EA0C0C0D69AA
:1013840005F00F05BD4045EA0C0540F826502668D7
:101394005F000325BD4026EA05064D6805F00305F8
:1013A400BD40354325601D464E6806F1FF3CBCF147
:1013B400010F03D9112E01D0122E1CD1A6684FEAB9
:1013C400450E4FF0030C0CFA0EFC26EA0C0CCE680A
:1013D40006FA0EF646EA0C06A66066684FF0010CA3
:1013E4000CFA05FC26EA0C0C4E68C6F30016AE4057
:1013F40046EA0C0666604E68032E0CD0E6686D0063
:101404004FF0030C0CFA05FC26EA0C0C8E68AE4077
:1014140046EA0C06E6604D6815F0805F49D09E08E8
:10142400394F183657F8265003F0030C4FEACC0C0A
:101434004FF00F0E0EFA0CFE25EA0E0E334D05EAA0
:10144400902505FA0CF545EA0E0547F826503E6846
:101454006FEA020C26EA02074D6815F4801F01D0DA
:1014640042EA0607284E376076680CEA06074D689C
:1014740015F4001F01D042EA0607234E7760D6F820
:1014840084600CEA06074D6815F4003F01D042EA77
:1014940006071D4EC6F88470D6F880600CEA06056F
:1014A4004F6817F4803F01D042EA0605164AC2F895
:1014B400805001330A6832FA03F521D04FF0010C51
:1014C4000CFA03FC1CEA0202F3D0114DA8423FF4CB
:1014D40017AF4D68022D3FF445AF122D3FF442AFD4
:1014E40026684FEA430C032707FA0CF726EA070697
:1014F40005F0030505FA0CF5354325601D4653E751
:10150400F0BD00BFFC600008002002467F7F2F0072
:10151400000002460AB181617047816270472DE97B
:10152400F04383B0D0F8008001EBC10300EB8303E8
:10153400DA6D5B6D9A4254D807460C469B1A01EB50
:10154400C10200EB8202926C9A4200D31A4602F165
:1015540003094FEA990915E006F103094FEA9909CD
:1015640004EBC40507EB8505E96C3B7C0093B3B23F
:10157400E2B2404604F012FAEB6C3344EB64EB6DD8
:101584003344EB6508EB441303F510639B699BB28A
:101594004B4512D304EBC40307EB8303DA6D5B6D95
:1015A4009A420AD24BB19B1A04EBC40207EB8202A3
:1015B400966C9E42D0D31E46CEE704EBC40307EBE1
:1015C40083077A6DFB6D9A420FD804F00F04012251
:1015D400A240D8F8343823EA0203C8F8343800208B
:1015E40000E0012003B0BDE8F0830020FAE770B505
:1015F4008AB0002800F097800546046890F8BD344E
:101604003BB3032385F8BD34E36B13F4807F01D12E
:1016140000232B61286804F041F82C4654F8106B21
:10162400EC460FCCACE80F000FCCACE80F0094E80C
:1016340003008CE803002B1D0ECB304603F0A0FF03
:10164400044658B1022385F8BD34012420460AB06B
:1016540070BD80F8BC34FFF78DF9D2E7002128680B
:1016640004F017FA234616E003EBC30205EB8202EB
:10167400012182F83D1082F83C30A2F84430002168
:1016840082F840109164D16403EBC30205EB82023B
:1016940051650133DBB269688B42E5D316E004EB94
:1016A400C40305EB8303002283F87D2283F87C4284
:1016B40083F88022C3F88822C3F88C2204EBC40385
:1016C40005EB8303C3F894220134E4B2A142E6D8C3
:1016D4002C4654F8106BEC460FCCACE80F000FCC42
:1016E400ACE80F0094E803008CE803002B1D0ECB3C
:1016F400304604F02FF8044660B9002385F83830EA
:10170400012385F8BD346B6A012B08D0286804F0E6
:101714007FF99BE7022385F8BD34012496E7284628
:1017240000F0D6FBF2E7012490E7704770B5044659
:101734000D460068066C00EB411303F530639A68AC
:101744002169012911D038498E4256D03DB905EBA3
:10175400C50304EB8303D3F89432002B5ED0E9B2C3
:101764002046FFF7E2FF002070BD12F0080F09D0F9
:101774002E498E42F7D912F4004FF4D04FF40042B0
:101784009A60F0E712F0200F02D020229A60EAE774
:1017940012F0280FE7D125498E4206D912F4004FE2
:1017A40003D04FF400429A60DDE705EBC50204EB79
:1017B4008202D2F898121B69C3F31203CB1AC2F83F
:1017C4009C327DB905EBC50204EB8202D2F8942267
:1017D4006AB105EBC50204EB8202D2F88C121944FB
:1017E400C2F88C12E9B22046FFF79FFFBBE704F270
:1017F400C442012104F08EF9F4E712F4004F03D03F
:101804004FF400429A60AEE712F0200F01D020227C
:101814009A60E9B22046FFF788FFA4E704F2C442C5
:10182400002104F077F99AE70A31544F0A30544FF3
:101834007047704738B5044603681D6C03EB4113C9
:10184400D3F8081B0E4A954207D903F5306311F407
:10185400004F02D04FF400429A602046FFF7E9FFA0
:10186400074B9D4202D92369012B01D0002038BDCA
:1018740004F2C4420121206804F04CF9F6E700BFE9
:101884000A30544F7047704770477047704770472D
:101894007047704708B511F0800F0CD101F00F01AB
:1018A40001EBC101890001F51E7101440431006896
:1018B40004F015F808BD01F00F0101EBC101890026
:1018C400383101440431F2E72DE9F04F83B0044686
:1018D4000568284604F0D9F810B103B0BDE8F08FCC
:1018E4000646206804F0A2F80028F6D005F5006743
:1018F400BB68C3F30D23C4F8FC34206804F096F8E5
:1019040010F0020F04D02268536903F002035361FC
:10191400206804F08BF810F0100F14D0226893693B
:1019240023F010039361D5F8208008F00F09C8F361
:101934004343022B69D0062B00F08D802268936903
:1019440043F010039361206804F070F810F4002F42
:1019540040F09380206804F069F810F4802F40F080
:10196400FC80206804F062F80028C0F27F812068BF
:1019740004F05CF810F4006F09D0BB6813F0010F99
:1019840040F08C812268536903F40063536120683A
:1019940004F04CF810F0006F15D02268536903F07E
:1019A4000063536194F8F434002B40F07B810121EF
:1019B40084F8F41423685B6DC3F38303C4F8F83428
:1019C400204600F098FA206804F030F810F4805FA4
:1019D40040F06C81206804F029F810F4005F40F0B6
:1019E400B981206804F022F810F0080F40F0CA8191
:1019F400206804F01BF810F0800F00F0DD81AB6963
:101A040023F08003AB610126C6E147F6F07318EAC0
:101A1400030F93D04FEA181A4FEAC903019309EB55
:101A2400C90B04EB8B0BC8F30A12DBF88C122846A3
:101A340003F0CBFFDBF88C32CAF30A0A5344CBF829
:101A44008C32DBF89C32019A4A4404EB8202534400
:101A5400C2F89C3272E7082204F2C441284603F01B
:101A6400B4FF09EBC90304EB8303D3F89C22C8F346
:101A74000A184244C3F89C2260E7206803F0DAFFA6
:101A84008046B14635E005EB49130122C3F8082B23
:101A940049462046FFF74AFE3CE005EB491308227D
:101AA400C3F8082B49462046FFF7C4FE35E009EB8E
:101AB400C90304EB830393F87F32012B41D005EB78
:101AC40049130222C3F8082B1AF0200F04D005EBA7
:101AD40049132022C3F8082B1AF4005F05D005EB44
:101AE40049134FF40052C3F8082B09F101094FEAD6
:101AF4005808B8F1000F3FF42DAF18F0010FF4D0DF
:101B04005FFA89FB5946206803F0A4FF824610F06F
:101B1400010FB8D11AF0080FBFD11AF0100F04D07A
:101B240005EB49131022C3F8082B1AF0020FCBD08F
:101B34006B6913F0800FBAD07B6843F480637B60D9
:101B4400B5E709EBC90304EB8303002283F87F2282
:101B540059462046FFF79AFEB1E7206803F072FF6A
:101B64008046B14625E059462046FFF761FE1AF04B
:101B7400080F04D005EB49130822C3F808291AF00A
:101B8400100F04D005EB49131022C3F808291AF0EA
:101B9400400F04D005EB49134022C3F808291AF07A
:101BA400020F40D11AF0800F5BD109F101094FEA0D
:101BB4005808B8F1000F3FF4D4AE18F0010FF4D078
:101BC4005FFA89FB5946206803F04DFF824610F006
:101BD400010FCCD009F00F02012101FA02F27B6B54
:101BE40023EA02037B6305EB4913C3F8081923694D
:101BF4008B42B8D109EBC90304EB8303DA6C996C0B
:101C04000A44DA64B9F1000FADD109EBC90304EB5E
:101C140083035B6D002BA6D104F2C442012120682A
:101C240003F078FF9FE74946284603F03DFD09EBA2
:101C3400C90304EB830393F83F30012B05D005EB74
:101C440049130222C3F80829ACE709EBC90304EBE2
:101C54008303002283F83F2059462046FFF717FEEE
:101C6400EDE749462046FFF75AFC9EE77B6823F0E0
:101C740001037B6094F8F434012B08D02046FFF76D
:101C840004FE2268536903F0004353616FE60021A8
:101C940084F8F414204600F02EF9F2E72046FFF70A
:101CA400F3FD6FE62046FFF7EFFD8CE67B6823F03B
:101CB40001037B601021206803F0F6FC1AE005EBB9
:101CC40046134FF67F31C3F80819D3F8002922F4DC
:101CD4000012C3F80029C3F8081BD3F8002B22F420
:101CE4000012C3F8002BD3F8002B42F00062C3F8B3
:101CF400002B01366368B342E1D8FB6943F001135A
:101D0400FB61236BDBB1D7F8843043F00B03C7F8D6
:101D140084307B6C43F00B037B64D5F8003823F4E8
:101D2400FE63C5F8003804F2C442217C206803F045
:101D3400F1FE2268536903F4805353614AE67B69D8
:101D440043F4005343F02B037B613B6943F00B03E3
:101D54003B61E2E7206803F0CDFE206803F0AEFDAE
:101D6400E060266800F008FC0146227B304603F060
:101D740023FC2046FFF787FD2268536903F40053D0
:101D840053612EE62046FFF77DFD2268536903F078
:101D9400080353612CE601366368B3420CD906EBA1
:101DA400C60304EB830393F87F32012BF3D1F1B222
:101DB4002046FFF76FFDEEE7206803F037FE10F4CE
:101DC400801F27D1206803F031FE10F4001F5BD080
:101DD400012328E001366368B3421DD905EB46139D
:101DE400D3F8002906EBC60304EB830393F84030D1
:101DF400012BEFD1002AEDDA06EBC60304EB8303D3
:101E0400012283F83F2066F07F01C9B22046FFF724
:101E140041FDDFE70126DEE72268536903F48013FE
:101E24005361CFE7013362689A4228D905EB431224
:101E3400D2F8001B03EBC30204EB820292F8802267
:101E4400012AEFD10029EDDA01F48031D4F8FC2421
:101E540002F001029142E5D103EBC30204EB8202DA
:101E6400012182F87F12AA6942F08002AA616A699C
:101E740012F0800FD6D17B6843F400737B60226834
:101E8400536903F400135361206803F0CFFD10F08D
:101E9400804F10D1206803F0C9FD10F0040F3FF407
:101EA4001CAD23685D6815F0040F0DD122685368DA
:101EB4002B43536011E52046FFF7EAFC226853697F
:101EC40003F080435361E5E72046FFF7E2FCEDE7CA
:101ED400034602680121C0F80015002083F8F404C9
:101EE400936943F000639361536D43F0805343F06F
:101EF4000303536570477047204BDB6B03F4403397
:101F0400834236D0B0F5803F16D91C4AD36823F4F7
:101F1400E023034343F48023D360194B1B68194A1D
:101F2400A2FB03139B09322101FB03F3A2FB03234E
:101F34009B0901331A4607E0104AD36823F4E023CF
:101F44000343D360E9E7013A0C49C96811F4004F2F
:101F540001D1002AF7D112B903207047013B074A87
:101F6400D26B12F4004F01D1002BF7D11BB100202A
:101F74007047002070470320704700BF00080246E6
:101F840000000020D34D6210024BD86B00F44030A7
:101F9400704700BF00080246174B1B68174AA2FB94
:101FA40003139B09322101FB03F3A2FB03239B09C7
:101FB400013380B912498A6822F002028A6000E083
:101FC400013B0F4AD26B12F0020F01D0002BF7D164
:101FD40083B1002070470A498A6842F002028A608D
:101FE40000E0013B064AD26B12F0020FF0D1002B45
:101FF400F7D1EDE70320704700000020D34D6210B5
:1020040000080246024A136943F080531361704783
:1020140000080246024A136943F0005313617047F3
:102024000008024630B583B004462D4BD3F89430F3
:1020340013F0040F0FD0FFF7A7FFB0F5403F20D0F7
:10204400B0F5003F1DD0B4F1805F2CD2B0F5803FD5
:1020540040D0012025E0224DD5F8943043F004030C
:10206400C5F89430D5F8943003F004030193019B30
:10207400FFF78AFFD5F8943023F00403C5F89430B1
:10208400DBE7B4F1805F23D20120164A136823F002
:102094000F0303431360136803F00F0383421DD13E
:1020A400002003B030BDB4F1005F05D9A0B9B4F18C
:1020B400405FEAD80120E8E7B4F1805F01D0012055
:1020C400E3E7B0F5803F01D00220DEE70120DCE742
:1020D4000020DAE70320D8E70020D6E70120E0E774
:1020E400000C0246002002405B4AD369926A13F056
:1020F4000C0310D002F003020C2B0AD0564AD2690A
:1021040002F00C02042A1ED0082B1FD00020014626
:1021140010E0012AF2D1504A926812F4000F0CD157
:102124004D4AD2F8F420C2F303324C4951F822103C
:102134003BB100200C2B0CD07047474A9268120F19
:10214400F3E70846F6E746480021F3E74448002150
:10215400F0E710B4404B9A6A02F00302986AC0F3A5
:1021640003209C6AC4F3001C9B6BC3F3CC030CFBDD
:1021740003F307EE903AB8EE677A0130022A20D0D2
:10218400032A4CD007EE901AF8EE676A07EE900A1D
:10219400F8EE677A86EEA76A2F4B5B6BC3F30803EE
:1021A40007EE903AF8EE677ADFED2E6A27EE267A8C
:1021B40077EE877AB7EE007A77EE877A66EE276A4B
:1021C4001BE007EE900AF8EE677A9FED276AC6EEE9
:1021D400276A214B5B6BC3F3080307EE903AF8EED2
:1021E400677A9FED206A27EE067A77EE877AB7EE54
:1021F400007A77EE877A66EEA76A174B5B6BC3F3B8
:102204000663013307EE903AB8EE677AC6EE877A32
:10221400FCEEE77A17EE900A5DF8044B704707EE80
:10222400900AF8EE677A9FED106AC6EE276A0A4BA9
:102234005B6BC3F3080307EE903AF8EE677A9FED01
:10224400096A27EE067A77EE877AB7EE007A77EE98
:10225400877A66EEA76AD0E7000C0246A4600008FD
:102264000024F400000000390024744B002800F01E
:102274007181F0B583B00D4604467F4B1B6803F0B3
:102284000F038B420BD27C4A136823F00F030B43DA
:102294001360136803F00F038B4240F05D812368E1
:1022A40013F0100F0CD06269744B5B6A03F0700377
:1022B4009A4205D971494B6A23F070031A434A6262
:1022C400236813F0080F0ED022696C4B1B6A1B099C
:1022D40003F070039A4206D968490B6A23F4E06359
:1022E40043EA02130B62236813F0040F0CD0E26874
:1022F400624B1B6A03F070039A4205D95F490B6A6B
:1023040023F070031A430A62236813F0020F0CD0FF
:10231400A2685A4B1B6A03F00F039A4205D9574926
:102324000B6A23F00F031A430A62236813F0010FA8
:1023340000F0A8806368032B0AD0022B61D0002B25
:1023440066D14E4B1B6813F0040F26D10120FFE029
:102354004A4BD3F8943013F0040F0ED1474BD3F803
:10236400942042F00402C3F89420D3F8943003F08C
:1023740004030193019B012700E00027FEF700FC02
:1023840006463F4BDB6813F4802F26D18FBB3B4BB3
:102394001B6813F0007F00F0E180384AD36923F012
:1023A400030361680B43D361FEF7EAFB06466368E7
:1023B400032B34D0022B41D0002B4ED02F4BDB69A2
:1023C40003F00C03042B5DD0FEF7DAFB801B41F213
:1023D40088339842F2D90320BAE0294BDB6813F41E
:1023E400804FD3D1FEF7CCFB801B0228F5D9032004
:1023F400AEE0224AD2F8943023F00403C2F89430B9
:10240400C5E71E4B1B6813F4003FC6D101209FE0B3
:102414001A4B1B6813F4806FBFD1012098E0174B4F
:10242400DB6903F00C030C2B2CD0FEF7A9FB831BF8
:1024340041F288329342F2D9032089E00F4BDB69E1
:1024440003F00C03082B1DD0FEF79AFB801B41F20E
:1024540088339842F2D903207AE0084BDB6913F001
:102464000C0F0FD0FEF78CFB801B41F2883398428F
:10247400F3D903206CE000BF00200240000C0246A8
:1024840000080246236813F0020F0CD0A268354BF3
:102494001B6A03F00F039A4205D232490B6A23F0F8
:1024A4000F031A430A62304B1B6803F00F03AB425D
:1024B4000AD92D4A136823F00F032B4313601368C2
:1024C40003F00F03AB424BD1236813F0040F0CD07D
:1024D400E268244B1B6A03F070039A4205D2214937
:1024E4000B6A23F070031A430A62236813F0080F7F
:1024F4000ED022691B4B1B6A1B0903F070039A421E
:1025040006D218490B6A23F4E06343EA02130B6210
:10251400236813F0100F0CD06269124B5B6A03F04E
:1025240070039A4205D20F494B6A23F070031A4391
:102534004A62FFF7D9FD0B4B1B6A03F00F030B4AEA
:10254400D35CD8400A4B18600A4B1868FEF7BCFAF3
:1025540003B0F0BD012070470120F9E70120F7E73F
:102564000120F5E7000C024600200240EC60000860
:10257400000000200800002008B5FFF7B5FD054B5A
:102584001B6A03F00F03044AD35CD840034B186062
:1025940008BD00BF000C0246EC60000800000020EB
:1025A400002800F02285F0B585B004469D4BDD6916
:1025B40005F00C059E6A06F00306036813F0100F7D
:1025C40000F09780EDB10C2D19D0E369002B00F0D9
:1025D4001381944A136843F001031360FEF7D0FAA1
:1025E4000746904B1B6813F0040F40F0CF80FEF7B2
:1025F400C7FAC01B0228F4D9032005B0F0BD012E90
:10260400E3D1884B1B6813F0040F03D0E369002B5C
:1026140000F0ED84606A834B9B6813F4000F1CD0B8
:10262400804B9B6803F07043984243D9E5B17D4ADF
:10263400936843F400039360936823F07043616AE2
:102644000B439360636AB3F1404F13D3D36823F011
:102654001F03216A0B43D36043E0724BD3F8F43079
:102664001B0403F07043DFE7FFF7DCFC0028DED037
:102674000120C2E7002B0BDBB3F1804F11D3694A71
:10268400D36823F4F843216A43EA8123D36028E022
:10269400644AD36823F47873216A43EA4113D3600C
:1026A4001FE0604AD36823F47823216A43EAC133E4
:1026B400D36016E05B4A936843F400039360936825
:1026C40023F07043616A0B439360636AB3F1404F34
:1026D40035D3D36823F01F03216A0B43D360002D45
:1026E4004DD0FFF749FF504B1868FEF7EDF900286D
:1026F40083D1236813F0010F00F0A480082D00F0AB
:1027040098800C2D00F092806368B3F5803F00F050
:10271400B980B3F5A02F00F0CB80B3F5A81F00F06B
:10272400D580404B1A6822F480321A601A6822F469
:1027340080221A601A6822F480121A60A7E0002B23
:102744000BDBB3F1804F11D3364AD36823F4F8433B
:10275400216A43EA8123D360C1E7324AD36823F470
:102764007873216A43EA4113D360B8E72D4AD368EA
:1027740023F47823216A43EAC133D360AFE7606A64
:10278400FFF750FC0028ACD0012036E7254A9368B7
:1027940043F400039360936823F07043616A0B432E
:1027A4009360636AB3F1404F06D3D36823F01F03E9
:1027B400216A0B43D3609CE7002B0BDBB3F1804F02
:1027C40011D3184AD36823F4F843216A43EA8123D6
:1027D400D3608EE7134AD36823F47873216A43EAFB
:1027E4004113D36085E70F4AD36823F47823216A21
:1027F40043EAC133D3607CE70A4A136823F0010338
:102804001360FEF7BDF90746064B1B6813F0040F6F
:102814003FF46FAFFEF7B4F9C01B0228F4D90320CC
:10282400EBE600BF000C024608000020032E7FF4F4
:102834006BAFA94B1B6813F4003F03D06368002BF4
:1028440000F0D883236813F0020F6FD0042D5CD0FE
:102854000C2D58D0E368002B00F08B809E4A13683F
:1028640043F480731360FEF78BF905469A4B1B689B
:1028740013F4806F74D1FEF783F9401B0228F5D955
:102884000320BAE6944A136843F480331360636800
:1028940053B3FEF775F907468F4B1B6813F4003FDB
:1028A400D0D1FEF76DF9C01B6428F5D90320A4E646
:1028B400894B1A6842F480221A601A6822F4801242
:1028C4001A601A6842F480321A60E0E7824B1A6890
:1028D40042F480221A601A6842F480121A601A685C
:1028E40042F480321A60D2E7FEF74AF907467A4B7F
:1028F4001B6813F4003FA5D0FEF742F9C01B6428FF
:10290400F5D9032079E6022EA4D1734B1B6813F486
:10291400806F03D0E368002B00F06F836E4A136965
:1029240023F4F813216943EA01431361236813F084
:10293400080F00F0AF80684BD3F8943013F0040F05
:102944002BD1654BD3F8942042F00402C3F89420B1
:10295400D3F8943003F004030193019B01251DE097
:102964005D4A136923F4F813216943EA01431361AF
:10297400DCE7594A136823F480731360FEF700F907
:102984000546554B1B6813F4806FCFD0FEF7F8F85B
:10299400401B0228F5D903202FE600254F4B9B6AE4
:1029A40013F0010F33D06369002B5BD04A4BD3F88B
:1029B400F030A16903F08052914211D003F04062DB
:1029C400B2F1006F00F01C8313F0806F33D1424AE0
:1029D400D2F8F03023F08053A1690B43C2F8F030F1
:1029E4003D4AD2F8F03043F08063C2F8F030FEF78D
:1029F400C7F80646384BD3F8F03013F0006F48D1CF
:102A0400FEF7BEF8801B0228F4D90320F5E5334A0B
:102A1400936A43F001039362FEF7B2F806462F4B24
:102A24009B6A13F0010FBED1FEF7AAF8801B02289F
:102A3400F5D90320E1E5284AD2F8F03023F0A05379
:102A4400C2F8F030FEF79CF80646234BD3F8F0307A
:102A540013F0006FBBD0FEF793F8801B0228F4D963
:102A64000320CAE51C4AD2F8F03023F0A053C2F880
:102A7400F030FEF785F80646174BD3F8F03013F024
:102A8400006F06D0FEF77CF8801B0228F4D90320DF
:102A9400B3E5CDB9236813F0040F00F0D9800E4BD1
:102AA400D3F8943013F0040F1AD10B4BD3F89420BD
:102AB40042F00402C3F89420D3F8943003F00403E2
:102AC4000293029B01250CE0034AD2F8943023F0D0
:102AD4000403C2F89430DDE7000C02460008024605
:102AE4000025AC4B9B6A13F0010F14D0A36813F0BC
:102AF400010F2CD013F0040F21D0A74BD3F8F020F2
:102B040042F00402C3F8F020D3F8F02042F00102AE
:102B1400C3F8F02028E09F4A936A43F001039362CC
:102B2400FEF72EF806469B4B9B6A13F0010FDDD18E
:102B3400FEF726F8801B0228F5D903205DE5964AA6
:102B4400D2F8F03043F00103C2F8F0300CE0924BBD
:102B5400D3F8F02022F00102C3F8F020D3F8F020DB
:102B640022F00402C3F8F020A368002B41D0FEF742
:102B740007F80646884BD3F8F03013F0020F08D15B
:102B8400FDF7FEFF801B41F288339842F2D90320FF
:102B940033E5A36813F0800F15D07F4AD2F8F030E4
:102BA40043F08003C2F8F0307B4BD3F8F03013F4D9
:102BB400006F4CD1FDF7E4FF801B41F2883398424B
:102BC400F2D9032019E5744AD2F8F03023F08003D7
:102BD400C2F8F030704BD3F8F03013F4006F36D0F5
:102BE400FDF7CEFF801B41F288339842F2D90320CF
:102BF40003E5FDF7C5FF0646674BD3F8F03013F045
:102C0400020F08D0FDF7BCFF801B41F288339842C5
:102C1400F2D90320F1E4604BD3F8F03013F0800FC5
:102C240015D05D4AD2F8F03023F08003C2F8F030BA
:102C3400594BD3F8F03013F4006F08D0FDF7A0FF20
:102C4400801B41F288339842F2D90320D5E4CDB9F0
:102C5400236813F0200F31D0E36ADBB14E4A1368C6
:102C640043F480531360FDF78BFF05464A4B1B6802
:102C740013F4005F22D1FDF783FF401B0228F5D92E
:102C84000320BAE4444AD2F8943023F00403C2F88F
:102C94009430DDE7404A136823F480531360FDF752
:102CA4006FFF05463C4B1B6813F4005F06D0FDF72D
:102CB40067FF401B0228F5D903209EE4236813F024
:102CC400800F29D0236B9BB1334A136843F48043AC
:102CD4001360FDF755FF05462F4B1B6813F4004F97
:102CE4001AD1FDF74DFF401B0228F5D9032084E4D7
:102CF400294A136823F480431360FDF741FF054616
:102D0400254B1B6813F4004F06D0FDF739FF401B19
:102D14000228F5D9032070E4236813F0400F63D030
:102D2400636B002B4CD01C4A936843F400039360FC
:102D3400936823F07063A16A0B439360636AB3F1F1
:102D4400404F19D3D36823F01F03216A0B43D36088
:102D5400114A136843F010031360FDF711FF054691
:102D64000D4B1B6813F0200F3ED1FDF709FF401BEC
:102D74000228F5D9032040E4002B0FDBB3F1804F88
:102D840015D3054AD36823F4F843216A43EA81231F
:102D9400D360DDE700080246000C0246A74AD36868
:102DA40023F47873216A43EA4113D360D0E7A34A3A
:102DB400D36823F47823216A43EAC133D360C7E795
:102DC4009E4A136823F010031360FDF7D9FE0546ED
:102DD4009A4B1B6813F0200F06D0FDF7D1FE401B61
:102DE4000228F5D9032008E4A36B002B00F00B8123
:102DF400924AD26902F00C020C2A00F0C680022B1F
:102E040015D08E4A136823F080731360FDF7B8FE63
:102E140004468A4B1B6813F0007F00F0AC80FDF77A
:102E2400AFFE001B0228F4D90320FFF7E6BB834A58
:102E3400136823F080731360FDF7A2FE05467F4BF1
:102E44001B6813F0007F07D0FDF79AFE401B022891
:102E5400F5D90320FFF7D1BB784BD3F8943013F0A6
:102E6400040F73D1754BD3F8942042F00402C3F8D5
:102E74009420D3F8943003F004030393039B0120BC
:102E84006F4BDB6813F4802F62D100256C4AD36842
:102E940023F48023D360694B9A6A22F47F4222F0A0
:102EA4000302E16B266C013E41EA0621666C314364
:102EB4000A439A625A6B634E1640A26C013AC2F3FB
:102EC4000802E16C0139490289B20A43216D0139D2
:102ED400090401F4FE010A43616D0139090601F098
:102EE400FE410A4316435E639A6A22F010029A6214
:102EF4009A6B22F47F4222F0F802E16D42EAC102A9
:102F04009A639A6A42F010029A629A6A22F00C0258
:102F1400A16D0A439A62EDB910BB484B9A6A42F418
:102F240080229A621A6842F080721A60FDF728FEC5
:102F34000446424B1B6813F0007F19D1FDF720FEB5
:102F4400001B0228F5D90320FFF757BB002097E7A1
:102F540001259BE73A4AD36843F48023D360DBE737
:102F6400364AD2F8943023F00403C2F89430D4E7FC
:102F74000020FFF742BB314A936A23F4E02323F095
:102F8400030393620020FFF738BB2C4A916A506B0D
:102F9400012B3BD001F00303E26B934239D1C1F31F
:102FA4000322236C013B9A4236D1C1F30331636C93
:102FB400994234D1C0F30802A36C013B9A4231D147
:102FC400C0F34622E36C013B9A422ED1C0F3064281
:102FD400236D013B9A422BD1C0F30660636D013B24
:102FE400984228D10020FFF708BB01207047012038
:102FF400FFF703BB0120FFF700BB0120FFF7FDBA79
:103004000120FFF7FABA0020FFF7F7BA0120FFF713
:10301400F4BA0120FFF7F1BA0120FFF7EEBA01205C
:10302400FFF7EBBA0120FFF7E8BA0120FFF7E5BA92
:103034000120FFF7E2BA0120FFF7DFBA000C0246D5
:10304400000802460000808008B5FFF795FA044B9B
:103054001B6AC3F30213034AD35CD84008BD00BF04
:10306400000C0246E460000808B5FFF785FA044B3B
:103074001B6AC3F30223034AD35CD84008BD00BFD4
:10308400000C0246E460000808B5FFF775FA044B2B
:103094005B6AC3F30213034AD35CD84008BD00BF84
:1030A400000C0246E460000838B50546354A13684A
:1030B40023F080531360FDF763FD0446314B1B6816
:1030C40013F0005F06D0FDF75BFD001B0228F5D965
:1030D400032038BD2B4B1A6B22F4706222F00302DA
:1030E40029686868013841EA00210A431A635A6C66
:1030F40025481040AA68013AC2F30802E968013978
:10310400490289B20A4329690139090401F4FE011B
:103114000A4369690139090601F0FE410A43104373
:1031240058641A6B22F00C02A9690A431A631A6BD9
:10313400296A0A431A631A6B22F010021A639A6C02
:1031440022F47F4222F0F802E96942EAC1029A6459
:103154001A6B42F010021A631A6842F080521A6025
:10316400FDF70EFD0446074B1B6813F0005F06D104
:10317400FDF706FD001B0228F5D90320A9E700206E
:10318400A7E700BF000C02460000808038B5054662
:10319400354A136823F080631360FDF7F1FC04469D
:1031A400314B1B6813F0006F06D0FDF7E9FC001BE0
:1031B4000228F5D9032038BD2B4BDA6A22F4706259
:1031C40022F0030229686868013841EA00210A43B1
:1031D400DA62DA6B25481040AA68013AC2F30802A1
:1031E400E9680139490289B20A43296901390904A4
:1031F40001F4FE010A4369690139090601F0FE413F
:103204000A431043D863DA6A22F00C02A9690A431C
:10321400DA62DA6A296A0A43DA62DA6A22F01002A6
:10322400DA621A6C22F47F4222F0F802E96942EA77
:10323400C1021A64DA6A42F01002DA621A6842F0D1
:1032440080621A60FDF79CFC0446074B1B6813F070
:10325400006F06D1FDF794FC001B0228F5D903206A
:10326400A9E70020A7E700BF000C02460000808009
:103274002DE9F04182B00446036813F0010F08D031
:10328400AC4AD2F8E03023F00303016D0B43C2F8DB
:10329400E030236813F0020F08D0A64AD2F8E030D9
:1032A40023F00C03616D0B43C2F8E030236813F084
:1032B400040F08D09F4AD2F8E03023F03003A16D08
:1032C4000B43C2F8E030236813F0080F08D0994A82
:1032D400D2F8E03023F0C003E16D0B43C2F8E030D4
:1032E400236813F0100F08D0924AD2F8E03023F488
:1032F4004073216E0B43C2F8E030236813F0200FB3
:1033040008D08C4AD2F8E83023F00703616E0B43EF
:10331400C2F8E830236813F0400F08D0854AD2F889
:10332400E03023F44063A16E0B43C2F8E03023681D
:1033340013F0800F08D07F4AD2F8E03023F44053D2
:10334400E16E0B43C2F8E030236813F4807F08D0A9
:10335400784AD2F8E83023F0C003216F0B43C2F857
:10336400E830236813F4800F08D0724AD2F8E030B2
:1033740023F44043616F0B43C2F8E030236813F435
:10338400007F08D06B4AD2F8E83023F44063A16F81
:103394000B43C2F8E830236813F4806F08D0654A01
:1033A400D2F8E03023F44023E16F0B43C2F8E0305D
:1033B400236813F4006F09D05E4AD2F8E83023F48E
:1033C4004073D4F880100B43C2F8E830236813F438
:1033D400005F36D0D4F89030402B20D00BD82BB3DC
:1033E400202B05D104F12C00FFF75EFE054622E0F8
:1033F4000126354627E0602B21D0802B0CD10025F7
:103404004C4AD2F8E43023F0E003D4F890100B4394
:10341400C2F8E430002616E00126354613E0454A9A
:10342400936A43F4803393620025E9E704F10800CA
:10343400FFF7ACFE0546002DE2D02E4603E0002542
:10344400DEE700263546236813F4804F25D0D4F8F0
:103454009430B3F5007F45D00DD8002B48D0B3F598
:10346400807F05D104F12C00FFF71EFE054608E01D
:103474000126354611E0B3F5407F02D0B3F5806FE5
:103484002DD1002D3AD12B4AD2F8E43023F4E06355
:10349400D4F894100B43C2F8E430236813F4004FBB
:1034A40010D0D4F8A830B3F5005F30D028D9B3F5E4
:1034B400804F31D0B3F5A04F2ED0B3F5405F2BD061
:1034C40001263546236813F4803F45D0D4F888306C
:1034D400042B5CD8DFE803F0353055353500012680
:1034E4003546DAE7134A936A43F480339362C8E7B4
:1034F40004F10800FFF74AFE0546C2E72E46CCE772
:1035040053B1B3F5805F07D001263546DAE704F1FD
:103514000800FFF73BFE054655B9064AD2F8E830E5
:1035240023F4E043D4F8A8100B43C2F8E830C9E709
:103534002E46C7E7000C0246794A936A43F4803367
:1035440093623DBB764AD2F8E43023F00703D4F803
:1035540088100B43C2F8E430236813F4003F30D0E2
:10356400D4F88C30B3F5003F00F0898017D8E3B16C
:10357400B3F5803F10D16A4A936A43F4803393626F
:1035840013E004F12C00FFF78FFD0546D9E701266F
:103594003546E1E72E46DFE70126354611E0B3F56F
:1035A400403F02D0B3F5802F66D1002D6DD15C4A27
:1035B400D2F8E83023F4E023D4F88C100B43C2F89B
:1035C400E830236813F4802F7AD0554BD3F8943025
:1035D40013F0040F5BD1524BD3F8942042F0040251
:1035E400C3F89420D3F8943003F004030193019BAF
:1035F4004FF001084B4A936A43F001039362FDF7CD
:10360400BFFA0746474B9B6A13F0010F05D1FDF73C
:10361400B7FAC31B022BF5D90325002D4CD1404B1F
:10362400D3F8F03013F4407316D0D4F8C0209A4283
:1036340012D03B4AD2F8F03023F44073D2F8F010A1
:1036440041F48031C2F8F010D2F8F01021F4803146
:10365400C2F8F010C2F8F03013F0010F1AD1002DA7
:1036640050D12F4AD2F8F03023F44073D4F8C0106C
:103674000B43C2F8F03020E001263546A1E704F1FF
:103684002C00FFF711FD05468FE72E4699E74FF012
:103694000008AFE7FDF774FA0746214BD3F8F03082
:1036A40013F0020FDBD1FDF76BFAC01B41F2883334
:1036B4009842F2D90325D2E72E46B8F1000F23D160
:1036C400236813F4801F34D0D4F8A030B3F1006F12
:1036D40000F0C98028D83BB1B3F1806F1CD104F14C
:1036E4000800FFF753FD0546002D40F0C2800C4A48
:1036F400D2F8E03023F04063D4F8A0100B43C2F8B2
:10370400E03016E02E46D8E7054AD2F8943023F08C
:103714000403C2F89430D3E70126354609E000BF1C
:10372400000C024600080246B3F1406FDCD00126CB
:103734003546236813F4002F0ED0D4F89830B3F52F
:10374400805F00F09880B3F5005F00F09480002B58
:1037540000F0918001263546236813F4805F09D078
:10376400614AD2F8E43023F40063D4F89C100B438C
:10377400C2F8E430236813F4001F0FD0D4F8A43047
:10378400B3F5804F00F08380574AD2F8E43023F435
:103794008043D4F8A4100B43C2F8E430236813F434
:1037A400000F09D0504AD2F8E03023F44013D4F883
:1037B400B4100B43C2F8E030236813F0807F09D0C3
:1037C400494AD2F8E03023F44033D4F8B8100B431C
:1037D400C2F8E030236813F0007F09D0424AD2F8DF
:1037E400E83023F01803D4F8BC100B43C2F8E830D7
:1037F400236813F0806F15D0D4F8B030B3F5001FF0
:103804004BD0D4F8B030B3F5401F4CD0002D50D17C
:10381400354AD2F8E43023F44013D4F8B0100B4303
:10382400C2F8E430236813F0006F0AD0D4F884306F
:10383400B3F1807F3FD0B3F1007F4DD0002B3FD058
:103844000126236813F0805F09D0274AD2F8E830B4
:1038540023F40043D4F8AC100B43C2F8E8303046EC
:1038640002B0BDE8F081204A936A43F400339362C6
:103874003AE72E465DE745B91B49D1F8E42022F426
:1038840040521343C1F8E43066E72E4664E7164A13
:10389400936A43F48033936276E7134A936A43F45A
:1038A40000339362ADE704F10800FFF76FFC0546AF
:1038B400ACE72E46B6E70C4A936A43F400339362AE
:1038C40085B9094AD2F8E03023F04073D4F8841063
:1038D4000B43C2F8E030B4E704F10800FFF756FCEC
:1038E4000546EDE72E46ACE7000C024610B5804BCA
:1038F4005A6BC2F3080E996A01F003019A6AC2F383
:1039040003229C6A04F0100C9B6BC3F3CC030CFBE6
:1039140003F307EE903AF8EE677A013202292CD0CD
:10392400032900F0B980012900F08A80704B9B685C
:1039340013F4000F00F0CD806D4B9B681B0F6D4995
:1039440001EB830393ED006AB8EE466A07EE102A92
:10395400B8EE477AC6EE076A07EE10EAB8EE477A81
:103964009FED656A67EE867A77EE277AB7EE007A7E
:1039740077EE877A66EEA77A1BE007EE102AB8EE98
:10398400477A9FED5E6AC6EE076A594B5B6BC3F3D9
:10399400080307EE103AB8EE477A9FED576A67EED0
:1039A400867A77EE277AB7EE007A77EE877A66EE34
:1039B400A77A4F4B9B6A13F4803F00F090804C4BE6
:1039C4005B6BC3F3462307EE103AB8EE477AF7EE83
:1039D400006A37EE267AC7EE876AFCEEE66AC0ED27
:1039E400006A434B9B6A13F4003F7BD0404B5B6BF4
:1039F400C3F3064307EE103AB8EE477AF7EE006ACF
:103A040037EE267AC7EE876AFCEEE66AC0ED016AF5
:103A1400374B9B6A13F4802F67D0354B5B6BC3F332
:103A2400066307EE103AB8EE477AF7EE006A37EE0F
:103A3400267AC7EE876AFCEEE66AC0ED026A10BD1C
:103A44002B4B9B6813F4000F20D0294B9B681B0F52
:103A5400284901EB830393ED006AB8EE466A07EE4A
:103A6400102AB8EE477AC6EE076A07EE10EAB8EEF7
:103A7400477A9FED216A67EE867A77EE277AB7EE6A
:103A8400007A77EE877A66EEA77A92E7184BD3F836
:103A9400F430C3F30333DBE707EE102AB8EE477ABA
:103AA4009FED166AC6EE076A114B5B6BC3F30803FE
:103AB40007EE103AB8EE477A9FED0F6A67EE867A02
:103AC40077EE277AB7EE007A77EE877A66EEA77AF2
:103AD4006FE7074BD3F8F430C3F303332FE7002326
:103AE40003607EE70023436092E700238360A6E738
:103AF400000C0246A4600008000000390024744B46
:103B040010B5804BDA6BC2F3080ED96A01F00301D9
:103B1400DA6AC2F30322DC6A04F0100C1B6CC3F3F0
:103B2400CC030CFB03F307EE903AF8EE677A01320C
:103B340002292CD0032900F0B980012900F08A80E1
:103B4400704B9B6813F4000F00F0CD806D4B9B68A5
:103B54001B0F6D4901EB830393ED006AB8EE466ACF
:103B640007EE102AB8EE477AC6EE076A07EE10EAA7
:103B7400B8EE477A9FED656A67EE867A77EE277A24
:103B8400B7EE007A77EE877A66EEA77A1BE007EE47
:103B9400102AB8EE477A9FED5E6AC6EE076A594B63
:103BA400DB6BC3F3080307EE103AB8EE477A9FEDD8
:103BB400576A67EE867A77EE277AB7EE007A77EE61
:103BC400877A66EEA77A4F4BDB6A13F4803F00F0E6
:103BD40090804C4BDB6BC3F3462307EE103AB8EEF0
:103BE400477AF7EE006A37EE267AC7EE876AFCEE6C
:103BF400E66AC0ED006A434BDB6A13F4003F7BD0F6
:103C0400404BDB6BC3F3064307EE103AB8EE477A3A
:103C1400F7EE006A37EE267AC7EE876AFCEEE66AAC
:103C2400C0ED016A374BDB6A13F4802F67D0354B44
:103C3400DB6BC3F3066307EE103AB8EE477AF7EE90
:103C4400006A37EE267AC7EE876AFCEEE66AC0EDB4
:103C5400026A10BD2B4B9B6813F4000F20D0294B34
:103C64009B681B0F284901EB830393ED006AB8EEB0
:103C7400466A07EE102AB8EE477AC6EE076A07EEE0
:103C840010EAB8EE477A9FED216A67EE867A77EEFE
:103C9400277AB7EE007A77EE877A66EEA77A92E70C
:103CA400184BD3F8F430C3F30333DBE707EE102AE1
:103CB400B8EE477A9FED166AC6EE076A114BDB6BC6
:103CC400C3F3080307EE103AB8EE477A9FED0F6A84
:103CD40067EE867A77EE277AB7EE007A77EE877A00
:103CE40066EEA77A6FE7074BD3F8F430C3F30333D8
:103CF4002FE7002303607EE70023436092E700235D
:103D04008360A6E7000C0246A460000800000039A6
:103D14000024744B10B5804B5A6CC2F3080E196B17
:103D240001F003011A6BC2F303221C6B04F0100CA4
:103D34009B6CC3F3CC030CFB03F307EE903AF8EE51
:103D4400677A013202292CD0032900F0B9800129B5
:103D540000F08A80704B9B6813F4000F00F0CD8054
:103D64006D4B9B681B0F6D4901EB830393ED006A58
:103D7400B8EE466A07EE102AB8EE477AC6EE076A2E
:103D840007EE10EAB8EE477A9FED656A67EE867A29
:103D940077EE277AB7EE007A77EE877A66EEA77A1F
:103DA4001BE007EE102AB8EE477A9FED5E6AC6EE76
:103DB400076A594B5B6CC3F3080307EE103AB8EE7D
:103DC400477A9FED576A67EE867A77EE277AB7EEE1
:103DD400007A77EE877A66EEA77A4F4B1B6B13F463
:103DE400803F00F090804C4B5B6CC3F3462307EE9E
:103DF400103AB8EE477AF7EE006A37EE267AC7EE45
:103E0400876AFCEEE66AC0ED006A434B1B6B13F451
:103E1400003F7BD0404B5B6CC3F3064307EE103A84
:103E2400B8EE477AF7EE006A37EE267AC7EE876A6D
:103E3400FCEEE66AC0ED016A374B1B6B13F4802F6E
:103E440067D0354B5B6CC3F3066307EE103AB8EEEC
:103E5400477AF7EE006A37EE267AC7EE876AFCEEF9
:103E6400E66AC0ED026A10BD2B4B9B6813F4000F89
:103E740020D0294B9B681B0F284901EB830393ED4A
:103E8400006AB8EE466A07EE102AB8EE477AC6EE24
:103E9400076A07EE10EAB8EE477A9FED216A67EEEB
:103EA400867A77EE277AB7EE007A77EE877A66EE2F
:103EB400A77A92E7184BD3F8F430C3F30333DBE764
:103EC40007EE102AB8EE477A9FED166AC6EE076A27
:103ED400114B5B6CC3F3080307EE103AB8EE477A54
:103EE4009FED0F6A67EE867A77EE277AB7EE007A4F
:103EF40077EE877A66EEA77A6FE7074BD3F8F4304C
:103F0400C3F303332FE7002303607EE700234360FA
:103F140092E700238360A6E7000C0246A460000831
:103F2400000000390024744B00B58BB0A0F5804329
:103F34000B4300F0598244F20103984271F10003EB
:103F440080F0FA80A0F180030B4300F07F84812885
:103F540071F100037CD2212871F1000354D250EA9C
:103F6400010300F08A86013841F1FF31202871F104
:103F7400000103D300200BB05DF804FB1F28F9D81F
:103F840001A353F820F000BF4D45000891450008F7
:103F9400793F0008D5450008793F0008793F0008BB
:103FA400793F000819460008793F0008793F000866
:103FB400793F0008793F0008793F0008793F0008FD
:103FC400793F00085D460008793F0008793F000802
:103FD400793F0008793F0008793F0008793F0008DD
:103FE400793F0008793F0008793F0008793F0008CD
:103FF400793F0008793F0008793F0008793F0008BD
:10400400793F0008A7460008403808431ED1AA4B50
:10401400D3F8E03013F4406300F0FE83B3F5806F0F
:1040240000F0FE83A44A126812F4806F03D0B3F543
:10403400006F00F08D86A04A106810F020009AD01E
:10404400B3F5406F00F0F083002094E7002092E77E
:10405400A0F500630B4300F0918440F601039842FD
:1040640071F100031DD3A0F580530B4300F0EB81E5
:10407400A0F5005008435DD18F4BD3F8E43003F032
:10408400E003402B00F0A68100F29581002B00F0A4
:10409400A681202B40F08D8101A8FFF73BFE0198FB
:1040A40069E7A0F500730B4300F0AC84A0F58063CE
:1040B4000B4326D1804BD3F8E03013F4402300F0B7
:1040C400E5847D4AD2F8F02012F0006F03D0B3F5F6
:1040D400802F00F0DF84784A126812F4806F03D0D6
:1040E400B3F5002F00F05D86734AD2F8F02012F089
:1040F400020F00F05986B3F5402F00F058860020D7
:1041040039E7A0F58070084312D16B4BD3F8E8303F
:1041140003F0C003802B00F0EA8300F2D283002B6B
:1041240000F0E183402B40F0C983FDF7DDFF22E777
:10413400002020E700201EE7A0F580030B4300F0D9
:10414400E5835E4B984271F1000333D300F17C4365
:104154000B4300F05A855A4B984271F10003C0F0AA
:10416400B38000F178430B4300F09E8400F170406B
:10417400084340F0F080504AD2F8E83003F400439A
:10418400D2F8F02012F0020F02D0002B00F01C86AF
:10419400494AD2F8F00010F000603FF4ECAE002B76
:1041A40000F01686D2F8F03013F0805F00F013862A
:1041B400FA20E0E6A0F580230B4300F0CE80414BCB
:1041C400984271F1000325D3A0F580130B4300F04E
:1041D4005181A0F5001008436BD1374BD3F8E400AC
:1041E40010F4804040F0A381D3F8E03003F0406342
:1041F400B3F1006F00F0888100F27581002B00F0AC
:104204008881B3F1806F7FF4B6AE04A8FFF778FC21
:104214000598B0E6A0F580330B4300F09982A0F531
:1042240000330B4316D1244BD3F8E83003F4E023D6
:10423400B3F5003F00F0DB8200F2C182002B00F0F6
:10424400E182B3F5803F40F0B78207A8FFF74EFB49
:10425400079890E6A0F50040084328D1164BD3F800
:10426400E83003F4E043B3F5805F00F05482B3F523
:10427400005F00F05382002B00F05582B3F5A04F8D
:1042840000F054820C4A126812F4003F03D0B3F5D4
:10429400405F00F04D85084A126812F4806F00F008
:1042A4004A85B3F5804F00F04985002063E600207D
:1042B40061E600205FE600BF000C024601004000FA
:1042C400010000040100040000F17F430B4300F0EF
:1042D4003C8400F17E430B4322D1974BD3F8E83062
:1042E40003F01803182B00F26985DFE813F0690462
:1042F40067056705670567056705670567056D0455
:104304006705670567056705670567056705710440
:1043140067056705670567056705670567057A0427
:10432400A0F50000084314D1834BD3F8E03003F424
:104334004013B3F5001F00F0F98300F2DF83002B74
:1043440000F0F083B3F5801F40F0CF83FDF7CCFE7F
:1043540011E600200FE600200DE6774AD2F8F0308F
:1043640003F44073D2F8F02012F0020F03D0B3F537
:10437400807F00F08584704AD2F8F02012F0006F3C
:1043840002D0B3F5007F0BD06B4A126812F4003FE1
:1043940000F07E84B3F5407F00F07D840020EAE5E0
:1043A400654BD3F8F03013F0805F00F06D84FA2091
:1043B400E1E50020DFE5602B00F07084802B07D15D
:1043C4005D4B186810F480603FF4D5AD5B48D2E5CE
:1043D4000020D0E507A8FFF789FA0798CBE504A8E1
:1043E400FFF78EFB0498C6E5534BD3F8E43003F48F
:1043F400E063B3F5007F1CD00AD8FBB1B3F5807F2E
:1044040004D101A8FFF786FC0198B4E50020B2E5C9
:10441400B3F5407F00F04684B3F5806F07D1464B77
:10442400186810F480603FF4A6AD4448A3E500206A
:10443400A1E507A8FFF75AFA07989CE504A8FFF737
:104444005FFB049897E53C4AD2F8E43003F4006338
:10445400126812F4806F02D0002B00F02784364AD1
:10446400126812F4806F00F02484002B40F024843E
:10447400002080E5304BD3F8E03003F04063B3F123
:10448400006F1DD00AD803B3B3F1806F04D104A820
:10449400FFF736FB05986EE500206CE5B3F1406F3D
:1044A4000CD1254B9B6813F4000F16D0224B9B684C
:1044B400C3F30363224A52F823005CE500205AE563
:1044C40007A8FFF713FA089855E51B4B186810F472
:1044D40000503FF450AD1B484DE5174BD3F8F43072
:1044E400C3F30323E6E7B3F1406F7FF444AD124B0B
:1044F4009B6813F4000F14D00F4B9B68C3F3036342
:104504000F4A52F8230036E507A8FFF7EFF9089899
:1045140031E5094B186810F400503FF42CAD0948FC
:1045240029E5054BD3F8F430C3F30323E8E707A8E0
:10453400FFF7DCF907981EE5000C02460024F4009E
:10454400A4600008006CDC02AC4BD3F8E03013F03C
:10455400030315D0012B16D0A84A126812F4806FF9
:1045640002D0022B00F0AB83A44AD2F8F02012F060
:10457400020F00F0A783032B00F0A7830020FAE4C6
:10458400FEF772FDF7E4FDF7AFFDF4E49B4BD3F8BF
:10459400E03013F00C0315D0042B16D0974A1268A0
:1045A40012F4806F02D0082B00F09383934AD2F860
:1045B400F02012F0020F00F08F830C2B00F08F8399
:1045C4000020D8E4FEF740FDD5E4FDF78DFDD2E4EC
:1045D4008A4BD3F8E03013F0300315D0102B16D0EB
:1045E400864A126812F4806F02D0202B00F07B837D
:1045F400824AD2F8F02012F0020F00F07783302BB9
:1046040000F077830020B6E4FEF71EFDB3E4FDF767
:104614006BFDB0E4794BD3F8E03013F0C00315D050
:10462400402B16D0754A126812F4806F02D0802B8A
:1046340000F06383714AD2F8F02012F0020F00F008
:104644005F83C02B00F05F83002094E4FEF7FCFC42
:1046540091E4FDF749FD8EE4684BD3F8E03013F4A0
:10466400407318D0B3F5807F18D0644A126812F4EE
:10467400806F03D0B3F5007F00F049835F4AD2F81E
:10468400F02012F0020F00F04583B3F5407F00F0F4
:10469400448300206FE4FEF7D7FC6CE4FDF724FDAF
:1046A40069E4564BD3F8E83013F007031CD0012B10
:1046B4001DD0524A126812F4806F02D0022B00F00F
:1046C40030834E4AD2F8F02012F0020F02D0032BAE
:1046D40000F02A83494A106810F020003FF44BACE4
:1046E400042B07D0002046E4FEF7CEFC43E4FDF79C
:1046F400FBFC40E4936813F4000F06D09368C3F303
:1047040003633F4A52F8230035E43C4BD3F8F430BA
:10471400C3F30323F5E7FDF7E7FC2CE404A8FFF754
:10472400EFF9069827E4FDF727FF24E4334B9B6851
:1047340013F4000F06D0314B9B681B0F304A52F81C
:10474400230018E42D4BD3F8F430C3F30333F5E717
:104754002A4BD3F8E43003F00703042B00F2F18270
:10476400DFE803F012060C0316004BF6803002E477
:1047740007A8FFF7BBF80798FFF7FDBB01A8FFF7F1
:10478400C9FA0298FFF7F7BBFDF7F6FEFFF7F3BB94
:104794001A4B9B6813F4000F08D0184B9B68C3F3A3
:1047A4000363174A52F82300FFF7E5BB134BD3F812
:1047B400F430C3F30323F4E70020FFF7DCBBB3F5C5
:1047C400403F00F0C182B3F5802F0DD10B4B9B68A5
:1047D40013F4000F1AD0094B9B68C3F30363084A10
:1047E40052F82300FFF7C7BB0020FFF7C4BB01A8A2
:1047F400FFF790FA0298FFF7BEBB00BF000C024619
:10480400A4600008FDF7B8FEFFF7B5BBB84BD3F8BA
:10481400F430C3F30323E2E7FEF716FCFFF7ABBB68
:10482400FDF762FCFFF7A7BB936813F4000F07D0F2
:104834009368C3F30363AF4A52F82300FFF79BBBAB
:10484400AB4BD3F8F430C3F30323F4E7A84BD3F80A
:10485400E03013F4405317D0B3F5805F18D0A44A66
:10486400126812F4806F03D0B3F5005F00F0738216
:104874009F4A106810F020003FF47DABB3F5405F11
:104884000AD00020FFF777BBFEF7DEFBFFF773BB10
:10489400FDF72AFCFFF76FBB936813F4000F07D0F2
:1048A4009368C3F30363934A52F82300FFF763BB8F
:1048B4008F4BD3F8F430C3F30323F4E70020FFF75E
:1048C4005ABBC02B0CD18A4B9B6813F4000F17D032
:1048D400874B9B681B0F874A52F82300FFF74BBB9B
:1048E4000020FFF748BBFEF7CFFBFFF744BB804B2C
:1048F400186810F480603FF43EAB7F48FFF73BBB81
:104904007B4BD3F8F430C3F30333E4E7784BD3F8A9
:10491400E03013F4404317D0B3F5804F18D0744AF5
:10492400126812F4806F03D0B3F5004F00F01682C2
:104934006F4A106810F020003FF41DABB3F5404FF0
:104944000AD00020FFF717BBFEF77EFBFFF713BB6F
:10495400FDF7CAFBFFF70FBB936813F4000F07D0F2
:104964009368C3F30363634A52F82300FFF703BB5E
:104974005F4BD3F8F430C3F30323F4E75C4BD3F871
:10498400E83013F4407313D1594B9B6813F4000FB0
:1049940008D0574B9B68C3F30363564A52F823006D
:1049A400FFF7E9BA524BD3F8F430C3F30323F4E727
:1049B4004F4AD2F8F02012F0006F02D0B3F5807F96
:1049C40016D04B4A126812F4806F03D0B3F5007FFF
:1049D40000F0CB81464AD2F8F02012F0020F00F02A
:1049E400C781B3F5407F00F0C6810020FFF7C3BA4A
:1049F4003F4BD3F8F03013F0805F00F0B281FA201F
:104A0400FFF7B9BA3A4BD3F8E83013F4406313D143
:104A1400374B9B6813F4000F08D0354B9B68C3F3E6
:104A24000363344A52F82300FFF7A5BA304BD3F896
:104A3400F430C3F30323F4E72D4AD2F8F02012F044
:104A4400006F02D0B3F5806F16D0294A126812F4B1
:104A5400806F03D0B3F5006F00F09581244AD2F83B
:104A6400F02012F0020F00F09181B3F5406F00F0D6
:104A740090810020FFF77FBA1D4BD3F8F03013F07C
:104A8400805F00F07C81FA20FFF775BAFEF7DCFA4C
:104A9400FFF771BA164BD3F8F03013F0805F00F0D3
:104AA4007C81FA20FFF767BA114AD2F8E03003F0AC
:104AB4004073126812F4003F02D0002B00F07B8197
:104AC400B3F1807F05D0B3F1007F08D00020FFF759
:104AD40052BA07A8FEF70AFF0898FFF74CBA04A8D1
:104AE400FFF70EF80498FFF746BA0020FFF743BA21
:104AF400000C0246A46000080024F400B3F5401F33
:104B04000DD1B74B9B6813F4000F18D0B44B9B68BE
:104B1400C3F30363B34A52F82300FFF72CBA00200F
:104B2400FFF729BAFEF7A0FAFFF725BAAC4B1868CD
:104B340010F480603FF41FAAAB48FFF71CBAA84BDF
:104B4400D3F8F430C3F30323E4E7A54BD3F8E03000
:104B540003F44033B3F5003F23D00AD8EBB1B3F5E7
:104B6400803F03D1FDF7C0FAFFF705BA0020FFF735
:104B740002BAB3F5403F0DD1994B9B6813F4000F73
:104B840018D0974B9B68C3F30363964A52F82300EB
:104B9400FFF7F1B90020FFF7EEB9FEF755FAFFF77A
:104BA400EAB98F4B186810F480603FF4E4A98E488A
:104BB400FFF7E1B98A4BD3F8F430C3F30323E4E7F6
:104BC400FEF762FAFFF7D7B9FDF78EFAFFF7D3B90C
:104BD400834B186810F480603FF4CDA98248FFF736
:104BE400CAB97F4B9B6813F4000F08D07C4B9B68B9
:104BF400C3F303637B4A52F82300FFF7BCB9784B35
:104C0400D3F8F430C3F30323F4E7754BD3F8E4305B
:104C140003F44013B3F5001F1FD014D81BB3B3F52E
:104C2400801F0DD16E4B9B6813F4000F1FD06C4B8B
:104C34009B68C3F303636B4A52F82300FFF79BB9E5
:104C44000020FFF798B9B3F5401F40F0BA8004A8DC
:104C5400FEF756FF0598FFF78EB907A8FEF746FE44
:104C64000898FFF788B9FDF73FFAFFF784B95C4B62
:104C7400D3F8F430C3F30323DDE70020FFF77BB957
:104C84004FF40040FFF777B94FF4FA40FFF773B9D8
:104C94000020FFF770B95548FFF76DB94BF6803027
:104CA400FFF769B94BF68030FFF765B94E48FFF757
:104CB40062B90020FFF75FB94D48FFF75CB94A4875
:104CC400FFF759B90020FFF756B94FF40040FFF73A
:104CD40052B94548FFF74FB90020FFF74CB94FF4DC
:104CE4000040FFF748B94048FFF745B90020FFF7F7
:104CF40042B94FF40040FFF73EB93B48FFF73BB9D8
:104D04000020FFF738B94FF40040FFF734B93648B4
:104D1400FFF731B90020FFF72EB94FF40040FFF739
:104D24002AB93148FFF727B94FF40040FFF723B9F8
:104D34002D48FFF720B90020FFF71DB92A48FFF7D7
:104D44001AB90020FFF717B94BF68030FFF713B9F3
:104D54002548FFF710B92448FFF70DB92248FFF79B
:104D64000AB94FF4FA40FFF706B91F48FFF703B931
:104D74000020FFF700B94FF40040FFF7FCB84FF4F0
:104D8400FA40FFF7F8B81848FFF7F5B80020FFF726
:104D9400F2B84FF40040FFF7EEB84FF4FA40FFF7D3
:104DA400EAB81148FFF7E7B80020FFF7E4B84FF47A
:104DB4000040FFF7E0B80C48FFF7DDB80020FFF72C
:104DC400DAB80020FFF7D7B84FF40040FFF7D3B8A4
:104DD4001846FFF7D0B84FF4FA40FFF7CCB800BF3D
:104DE400000C0246A46000080024F40020A107007F
:104DF40000127A0070B5044601688368026913439F
:104E040042691343C269134308686B4A02401A4358
:104E14000A602268536823F44053E1680B435360EB
:104E2400A1692268654B9A4205D003F180539A42E6
:104E340001D0236A1943936823F06E4323F430634B
:104E44000B4393602268D36A23F00F03616A0B4318
:104E5400D36223685A4A934216D0A2F5744293420D
:104E64003AD002F58062934238D002F580629342D0
:104E740036D002F58062934234D0504A934201D036
:104E8400002002E0202000E001204C4A93422BD075
:104E940002F18052934227D0E369B3F5004F52D018
:104EA4000021FFF741F8002800F08180616A454A3B
:104EB40032F81120B0FBF2F3626803EB5203B3FB48
:104EC400F2F3A3F110014FF6EF72914271D8226808
:104ED4009BB2D360002057E00220D6E70420D4E739
:104EE4000820D2E71020D0E70021FFF71DF8014683
:104EF400002848D0626A334B33F81220B0FBF2F337
:104F0400656805EB4500984247D8B3EB053F46D8A2
:104F14000026334608463146FBF78AF9090241EA7E
:104F2400106100026B08C0182A46334641F10001A3
:104F3400FBF77EF9A0F54072234B9A4231D82368DF
:104F4400D860304620E00021FEF7EEFF58B3616AD6
:104F54001C4A32F81120B0FBF2F261684B0803EBF3
:104F64004203B3FBF1F3A3F110014FF6EF72914248
:104F74001BD89AB222F00F02C3F3420313432268F0
:104F8400D360002000E000200123A4F86A30A4F8D4
:104F9400683000232367636770BD0120F4E70120B4
:104FA400F2E70120F0E70020EEE70120ECE7002023
:104FB400EAE70120E8E700BFF369FFCF00240046D9
:104FC400003801407C610008FFFC0F00836A13F085
:104FD400010F06D00268536823F40033C16A0B43FF
:104FE4005360836A13F0020F06D00268536823F4F7
:104FF4008033016B0B435360836A13F0040F06D0B4
:105004000268536823F48023416B0B435360836A23
:1050140013F0080F06D00268536823F40043816B31
:105024000B435360836A13F0100F06D00268936831
:1050340023F48053C16B0B439360836A13F0200FF6
:1050440006D00268936823F40053016C0B43936009
:10505400836A13F0400F0AD00268536823F4801364
:10506400416C0B435360436CB3F5801F0BD0836AD0
:1050740013F0800F06D00268536823F40023C16C38
:105084000B43536070470268536823F4C003816C78
:105094000B435360EBE72DE9F84305460F461646EC
:1050A4009946DDF820802B68DC6937EA04040CBFDC
:1050B40001240024B44257D1B8F1FF3FF3D0FBF7E9
:1050C4005FFDA0EB090040452FD8B8F1000F2CD0AC
:1050D4002B681A6812F0040FE5D0DA6912F4006F35
:1050E400E1D04FF400621A622A6852E8003F23F4C8
:1050F400D07342E800310029F6D12A6802F108038E
:1051040053E8003F23F00103083242E8003100294C
:10511400F3D12023C5F88430C5F88830C5F88C3025
:10512400002385F8803003201FE02A6852E8003FFE
:1051340023F4D07342E800310029F6D12A6802F141
:10514400080353E8003F23F00103083242E800312A
:105154000029F3D12023C5F88430C5F88830002312
:1051640085F88030032000E00020BDE8F88330B5E6
:1051740083B004460023C0F88C30FBF701FD0546DC
:105184002268126812F0080F0FD123681B6813F00D
:10519400040F18D12023C4F88430C4F888300020C8
:1051A400E06684F8800003B030BD6FF07E43009366
:1051B400034600224FF400112046FFF76CFF00283D
:1051C400E3D00320EFE76FF07E4300932B460022E9
:1051D4004FF480012046FFF75EFF0028DAD0032059
:1051E400E1E778B310B50446D0F884300BB3242338
:1051F400C4F884302268136823F001031360204646
:10520400FFF7F8FD012813D0A36ABBB922685368DD
:1052140023F4904353602268936823F02A03936035
:105224002268136843F0010313602046FFF79FFFD1
:1052340010BD80F88030FBF751FBD8E72046FFF71C
:10524400C5FEE3E701207047436E2BB90123A0F8A4
:105254006A30A0F86830704730B403689A68C2F3C3
:1052640042629968490F094D6B5CDB00084C615C34
:1052740093FBF1F3A0F86A30AB5CDB00A25C93FB18
:10528400F2F3A0F8683030BC704700BF9C6100089E
:105294009461000890F88030012B18D0012380F825
:1052A40080302423C0F8843003681A68196821F018
:1052B4000101196022F000520023436601680A606C
:1052C4002022C0F8842080F88030184670470220DD
:1052D400704738B590F88030012B1DD00446012367
:1052E40080F880302423C0F8843003681D681A686D
:1052F40022F001021A600268936823F060431943A4
:105304009160FFF7A1FF23681D602023C4F8843057
:10531400002084F8800038BD0220FCE738B590F8FE
:105324008030012B1DD00446012380F880302423D3
:10533400C0F8843003681D681A6822F001021A60FC
:105344000268936823F0606319439160FFF77CFF60
:1053540023681D602023C4F88430002084F8800072
:1053640038BD0220FCE710B4046891FAA1F3A3B19C
:10537400B3FA83F35B004FF0030C0CFA03F324EA53
:10538400030391FAA1F151B1B1FA81F149008A40C4
:10539400134303605DF8044B70472023EAE72021A0
:1053A400F4E710B4846891FAA1F3A3B1B3FA83F3D8
:1053B4005B004FF0030C0CFA03F324EA030391FAA5
:1053C400A1F151B1B1FA81F149008A4013438360DC
:1053D4005DF8044B70472023EAE72021F4E710B47A
:1053E400C46891FAA1F3A3B1B3FA83F35B004FF05D
:1053F400030C0CFA03F324EA030391FAA1F151B16B
:10540400B1FA81F149008A401343C3605DF8044B4B
:1054140070472023EAE72021F4E710B4046A91FAE4
:10542400A1F3A3B1B3FA83F39B004FF00F0C0CFA72
:1054340003F324EA030391FAA1F151B1B1FA81F122
:1054440089008A40134303625DF8044B70472023AC
:10545400EAE72021F4E710B4446A090A91FAA1F3B7
:10546400A3B1B3FA83F39B004FF00F0C0CFA03F3D0
:1054740024EA030491FAA1F151B1B1FA81F189004E
:105484008A40144344625DF8044B70472023EAE7E2
:105494002021F4E7F8B507460E460D6895FAA5F500
:1054A40015B1B5FA85F50DE020250BE0B26821466B
:1054B4003846FFF776FF16E0726921463846FFF753
:1054C400CAFF0135346834FA05F222D00122AA4019
:1054D4001440F6D0726821463846FFF744FF7368DB
:1054E400013B012BE2D9326921463846FFF777FFA9
:1054F4007368022BE5D194FAA4F3002BDCD0B3FA41
:1055040083F3072BD8D8726921463846FFF785FF05
:10551400D7E77268013A012A01D90020F8BDF3687F
:105524007A6822EA040204FB03F313437B60F4E782
:1055340082B000230193019B01330193019A0F4B25
:105544009A4215D80369002BF5DA00230193036905
:1055540043F001030361019B01330193019A074B5B
:105564009A4208D8036913F0010FF4D1002000E037
:10557400032002B070470320FBE700BF400D030087
:1055840084B010B504460DF10C0C8CE80E00C36811
:1055940043F04003C360FFF7CBFF0C9B3BB9A36B05
:1055A40043F48033A363BDE8104004B07047A36B99
:1055B40023F48033A363F6E7022A0AD00922C368DE
:1055C40023F47053C360C36843EA8223C36000209A
:1055D4007047234B0B44234A93422FD9224B0B444D
:1055E400224A93422CD9A1F57403A3F51053204AFF
:1055F400934227D9A1F18373A3F5E7431D4A93424C
:1056040022D31D4B0B441D4A93421FD91C4B0B4400
:105614001C4A93421CD31C4B0B441C4A934219D37F
:10562400A1F1B773A3F55853194A934214D3194BF4
:105634000B44194A934211D20722C0E70F22BEE756
:105644000E22BCE70D22BAE70C22B8E70B22B6E71C
:105654000A22B4E70922B2E70822B0E70622AEE73D
:10566400405327FFFF340C00401E1BFF3F420F0036
:105674007F4F120020D6130060B6E5FE5FE31600EC
:1056840000D3CEFE40771B00C05BB3FEC091210067
:1056940020753800E05459FEE09C4100836823F0F3
:1056A400010383600020704782B000230193019BB3
:1056B40001330193019A0F4B9A4215D80369002BC9
:1056C400F5DA00230193890141F020010161019B76
:1056D40001330193019A074B9A4208D8036913F0E6
:1056E400200FF4D1002000E0032002B07047032013
:1056F400FBE700BF400D030082B000230193019B30
:1057040001330193019A0E4B9A4213D80369002B7B
:10571400F5DA0023019310230361019B0133019304
:10572400019A074B9A4208D8036913F0100FF4D179
:10573400002000E0032002B070470320FBE700BF15
:10574400400D0300D0F800381943C0F800180020B9
:105754007047000084B02DE9F041044607A880E8B2
:105764000E00002306E003F1400204EB8202002154
:10577400516001330E2BF6D9119F8FBBD4F8043836
:1057840043F00203C4F80438A36B23F40013A363A7
:10579400236843F040032360236843F080032360BD
:1057A4000023C4F8003E04F50065D4F80038C4F8BA
:1057B400003803212046FFF7C5FF10212046FFF7DC
:1057C40073FF804608B14FF001082046FFF794FFAD
:1057D40008B14FF0010800232B616B61EB610FE00E
:1057E400A36B43F40013A363DAE7C3B94FF000607B
:1057F400C2F8000900220A614FF67F328A60013341
:105804000799994210D904EB431202F51061D2F8BA
:1058140000090028E9DB0020C2F80009EAE74FF09C
:105824009040C2F80009E5E700230AE0C3B14FF055
:10583400904CC2F800CB002202614FF67F328260A6
:105844000133994211D904EB431202F53060D2F8C6
:10585400006B002EEADB4FF0000CC2F800CBEAE745
:105864004FF0006CC2F800CBE5E72B6923F480739A
:105874002B610023A3616FF0804363610A9B1BB912
:10588400A36943F01003A361A2690B4B1343A36103
:105894000D9B1BB1A36943F00803A361012F04D03E
:1058A4004046BDE8F04104B07047A36943F080432B
:1058B40043F00403A361F3E700383C80D0F80838D0
:1058C40013F0060307D0022B07D0062B01D00F20BC
:1058D400704702207047002070470220704710B4C0
:1058E40083B0024600230193487801280BD00B783B
:1058F40002EB4313D3F8000B00282DDB002003B088
:105904005DF8044B70470B7802EB4313D3F800495E
:10591400002C01DB0020F2E7D3F8004944F00064D6
:10592400C3F800490B7802EB4313D3F8004944F061
:105934008044C3F80049019B01330193019C42F266
:1059440010739C42DBD80B7802EB4313D3F8003975
:10595400002BF0DB0020D2E7D3F8000B40F000600E
:10596400C3F8000B0B7802EB4313D3F8000B40F0A1
:105974008040C3F8000B019B01330193019842F26C
:105984001073984208D80B7802EB4313D3F8003B0A
:10599400002BF0DB0020B2E70120B0E710B59DF842
:1059A400084084B903334FEA930E4FF0000C08E02B
:1059B40000EB023303F5805351F8044B1C600CF1E7
:1059C400010CF445F4D3002010BD10B584460846FC
:1059D4004FEA920E02F00302002305E00CF5805119
:1059E400096840F8041B01337345F7D37AB10CF509
:1059F400805CDCF800400021CBB2DB0024FA03F326
:105A040000F8013B0131013A92B2002AF4D110BDF1
:105A1400D0F8003E23F00303C0F8003ED0F8043869
:105A240043F00203C0F804380020704742698069DB
:105A340010407047D0F8183800F50060C06918406D
:105A4400000C7047D0F8183800F50060C0691840A1
:105A540080B2704700EB4111D1F8082B00F50060CB
:105A6400406910407047D0F81028D0F8343801F05D
:105A74000F0C23FA0CF3DB01DBB2134300EB4110F0
:105A840000F51060806818407047406900F001001C
:105A9400704738B50546C36823F0C043C360012985
:105AA40013D019BBC36843F08043C36000240120B2
:105AB400FBF76CF801342846FFF7E7FF08B1312CF7
:105AC400F5D9322C14D0002038BDC36843F00053FC
